{
  "contractName": "DFS",
  "abi": [
    {
      "constant": true,
      "inputs": [
        {
          "internalType": "string",
          "name": "",
          "type": "string"
        }
      ],
      "name": "files",
      "outputs": [
        {
          "internalType": "string",
          "name": "",
          "type": "string"
        }
      ],
      "payable": false,
      "stateMutability": "view",
      "type": "function"
    },
    {
      "constant": false,
      "inputs": [
        {
          "internalType": "string",
          "name": "name",
          "type": "string"
        }
      ],
      "name": "popFiles",
      "outputs": [
        {
          "internalType": "string",
          "name": "",
          "type": "string"
        }
      ],
      "payable": false,
      "stateMutability": "nonpayable",
      "type": "function"
    },
    {
      "constant": false,
      "inputs": [
        {
          "internalType": "string",
          "name": "name",
          "type": "string"
        },
        {
          "internalType": "string",
          "name": "hash",
          "type": "string"
        }
      ],
      "name": "pushFiles",
      "outputs": [],
      "payable": false,
      "stateMutability": "nonpayable",
      "type": "function"
    }
  ],
  "bytecode": "0x608060405234801561001057600080fd5b506107d8806100206000396000f3fe608060405234801561001057600080fd5b50600436106100415760003560e01c80632d3e8d3114610046578063d34c56681461017a578063e7755761146102cc575b600080fd5b6100ff6004803603602081101561005c57600080fd5b810190808035906020019064010000000081111561007957600080fd5b82018360208201111561008b57600080fd5b803590602001918460018302840111640100000000831117156100ad57600080fd5b91908080601f016020809104026020016040519081016040528093929190818152602001838380828437600081840152601f19601f820116905080830192505050505050509192919290505050610400565b6040518080602001828103825283818151815260200191508051906020019080838360005b8381101561013f578082015181840152602081019050610124565b50505050905090810190601f16801561016c5780820380516001836020036101000a031916815260200191505b509250505060405180910390f35b6102ca6004803603604081101561019057600080fd5b81019080803590602001906401000000008111156101ad57600080fd5b8201836020820111156101bf57600080fd5b803590602001918460018302840111640100000000831117156101e157600080fd5b91908080601f016020809104026020016040519081016040528093929190818152602001838380828437600081840152601f19601f8201169050808301925050505050505091929192908035906020019064010000000081111561024457600080fd5b82018360208201111561025657600080fd5b8035906020019184600183028401116401000000008311171561027857600080fd5b91908080601f016020809104026020016040519081016040528093929190818152602001838380828437600081840152601f19601f82011690508083019250505050505050919291929050505061052f565b005b610385600480360360208110156102e257600080fd5b81019080803590602001906401000000008111156102ff57600080fd5b82018360208201111561031157600080fd5b8035906020019184600183028401116401000000008311171561033357600080fd5b91908080601f016020809104026020016040519081016040528093929190818152602001838380828437600081840152601f19601f8201169050808301925050505050505091929192905050506105b1565b6040518080602001828103825283818151815260200191508051906020019080838360005b838110156103c55780820151818401526020810190506103aa565b50505050905090810190601f1680156103f25780820380516001836020036101000a031916815260200191505b509250505060405180910390f35b60606000826040518082805190602001908083835b602083106104385780518252602082019150602081019050602083039250610415565b6001836020036101000a03801982511681845116808217855250505050505090500191505090815260200160405180910390206001908054600181600116156101000203166002900461048c929190610677565b5060018054600181600116156101000203166002900480601f0160208091040260200160405190810160405280929190818152602001828054600181600116156101000203166002900480156105235780601f106104f857610100808354040283529160200191610523565b820191906000526020600020905b81548152906001019060200180831161050657829003601f168201915b50505050509050919050565b806000836040518082805190602001908083835b602083106105665780518252602082019150602081019050602083039250610543565b6001836020036101000a038019825116818451168082178552505050505050905001915050908152602001604051809103902090805190602001906105ac9291906106fe565b505050565b6000818051602081018201805184825260208301602085012081835280955050505050506000915090508054600181600116156101000203166002900480601f01602080910402602001604051908101604052809291908181526020018280546001816001161561010002031660029004801561066f5780601f106106445761010080835404028352916020019161066f565b820191906000526020600020905b81548152906001019060200180831161065257829003601f168201915b505050505081565b828054600181600116156101000203166002900490600052602060002090601f016020900481019282601f106106b057805485556106ed565b828001600101855582156106ed57600052602060002091601f016020900482015b828111156106ec5782548255916001019190600101906106d1565b5b5090506106fa919061077e565b5090565b828054600181600116156101000203166002900490600052602060002090601f016020900481019282601f1061073f57805160ff191683800117855561076d565b8280016001018555821561076d579182015b8281111561076c578251825591602001919060010190610751565b5b50905061077a919061077e565b5090565b6107a091905b8082111561079c576000816000905550600101610784565b5090565b9056fea265627a7a723158202a6bd134ee092405a0c671b8d0890bdaaa199d113b47a70946f77fe611dee37f64736f6c63430005100032",
  "source": "pragma solidity >=0.4.16 <0.8.0;\r\n/*\r\nZhiguang Liu\r\nzliu71@syr.edu\r\nProject\r\n*/\r\ncontract DFS { \r\n    \r\n    mapping (string => string) public files;\r\n    \r\n    string buf;\r\n    \r\n    function popFiles(string memory name) public returns (string memory){\r\n        \r\n        buf = files[name];\r\n        return buf;\r\n        \r\n    }\r\n\r\n    function pushFiles(string memory name, string memory hash) public{\r\n        \r\n        files[name] = hash;\r\n        \r\n    }\r\n    \r\n}\r\n",
  "sourcePath": "C:/Users/lz7fd/OneDrive/Desktop/CIS600/Project/contracts/DFS.sol",
  "compiler": {
    "name": "solc",
    "version": "0.5.16+commit.9c3226ce.Emscripten.clang"
  },
  "schemaVersion": "3.3.2",
  "updatedAt": "2020-12-01T19:20:59.962Z",
  "networkType": "ethereum",
  "devdoc": {
    "methods": {}
  },
  "userdoc": {
    "methods": {}
  }
}